:100000000C944A000C9473010C9467000C946700E4
:100010000C9467000C9467000C9467000C946700C4
:100020000C9467000C9467000C9467000C946700B4
:100030000C9467000C9467000C9467000C946700A4
:100040000C9467000C9467000C9467000C94670094
:100050000C94670009021200010100A00A090400C3
:1000600000000000000012011001FF000008C0168F
:10007000E803000101020001100361007600720034
:100080002D006C0065006400080361006D006900CC
:100090000403090411241FBECFE5D4E0DEBFCDBFA9
:1000A00010E0A0E6B0E0E2E6F5E002C005900D92B7
:1000B000A236B107D9F720E0A2E6B0E001C01D9258
:1000C000AD38B207E1F70E9492020C94AF020C9493
:1000D0000000CF93DF9380917300835087FD8AC027
:1000E0009091700020916F002D3209F081C088300E
:1000F00009F07EC0CCE0D0E0C91BD109C958DF4F60
:1001000083EC809363008AE5809361001092620023
:100110008881807621F0CE010E94870260C08A81AA
:1001200010926C009981911106C010926D002CE61E
:1001300030E082E050C0953019F4809374003DC0E7
:100140009630A9F59B81913019F486E690E004C0C1
:10015000923041F484E590E09093720080937100B6
:1001600082E121C09330F1F4811108C080E990E070
:10017000909372008093710084E015C0813041F447
:1001800088E890E0909372008093710088E00BC043
:10019000823041F488E790E0909372008093710080
:1001A00080E101C080E090E49093620018C0983034
:1001B00079F0993031F4809376002CE630E080E0DD
:1001C0000AC081E09A3009F080E02CE630E003C0FC
:1001D00026E730E081E030937200209371009F8128
:1001E000911104C09E81981708F4892F80936000B4
:1001F000109273008091610084FF48C0809160007C
:100200008F3F09F443C0C82F893008F0C8E08C1B29
:10021000809360009091630088E889278093630051
:10022000CC2339F18091710090917200209162008D
:1002300026FF0BC0A4E6B0E0FC012C2F280F349160
:100240003D9331962E13FBCF09C0DC01E4E6F0E0CC
:100250002C2F2E0F3D9131932E13FCCF2FEF2C0F0F
:1002600030E02F5F3F4F820F931F90937200809377
:1002700071006C2F84E690E00E946F01CC5FCC305F
:1002800019F08FEF80936000C093610084E190B318
:10029000947131F48150D9F71092740010926E006D
:1002A000DF91CF91089585B7826085BF8BB7806459
:1002B0008BBF0895A82FB92F80E090E041E050EA6D
:1002C000609530E009C02D9182279795879510F0B1
:1002D00084279527305EC8F36F5FA8F30895EADF9F
:1002E0008D939D930895CF93CFB7CF93DF93C3950D
:1002F000849BE9F7849B0BC0849B09C0849B07C047
:10030000849B05C0849B03C0849B01C089C06F93FC
:10031000C0917000DD27C958DF4F2F9365E5849B9E
:1003200003C02F916F91E6CF0F931F934F9320E05F
:1003300040E15F9300B3047104FB27F93F9350E061
:100340003BE039C0147140642F77012F5F5F1EC0FE
:10035000406810B314712F7752501FC0406400B32F
:100360002F770471D1F15F5F00C023C0406210B3EA
:100370002F77147191F15F5F00C025C004711027C1
:10038000515012F45D5F0000115027952C3F10B3BF
:10039000C8F614710127015027952C3FC8F6422753
:1003A000499300B3047110274F73115027952C3FC8
:1003B000A8F64695469510B3147179F001270150BF
:1003C00027952C3F98F66B5A60F3315000B3B0F686
:1003D00000C010E41ABF002717C03B503195C31B63
:1003E000D04010E41ABF0881033CF9F00B34E9F067
:1003F00020916E001981110F1213EDCF093651F1C2
:100400000D3211F0013E39F7009375003F915F9175
:100410004F911F910F912F916F91CAB7C6FD67CF72
:10042000DF91CF91CFBFCF911895209175002223F6
:1004300069F310917300112339F534303AF1309398
:10044000730020936F00109170003BE0311B3093DC
:1004500070001CC0009173000130B4F40AE53091C3
:10046000610034FD14C000936100C3E6D0E013C006
:10047000052710E000C0000002BB1AC0052710E0ED
:10048000221F1DC010E021C04AE502C032ED432FFB
:10049000C4E1D0E032E011B31461949A02B311BB0D
:1004A00054E120E865E320FF052702BB2795179557
:1004B0001C3FF0F66695B8F7B1F720FF052702BBA1
:1004C000279517951C3FD0F62795179517FF0527F9
:1004D00000001C3F02BBB0F629913A9519F70B7E3C
:1004E00010917400110FC651D04002BB11F010934F
:1004F0006E0010E41ABF006111B31B7E402F4B7ECB
:1005000054E05A95F1F702BB11BB42BB7FCFFC010F
:100510008181882321F0813019F4C19A01C0C198EA
:1005200080E00895B99A9EE088E10FB6F894A89506
:1005300081BD0FBE91BD0E9453018C9A80E0815015
:1005400041F0A895EFE9FFE03197F1F700C0000016
:10055000F6CF8C987894A8950E946900FCCFF89407
:02056000FFCFCB
:02056200FF5A3E
:00000001FF
